:020000040800F2
:10000000600600206D0100087501000877010008F6
:10001000790100087B0100087D0100080000000054
:100020000000000000000000000000007F01000848
:10003000810100080000000083010008850100081C
:100040008701000887010008870100088701000870
:100050008701000887010008870100088701000860
:100060008701000887010008870100088701000850
:100070008701000887010008870100088701000840
:100080008701000887010008870100088701000830
:100090008701000887010008870100088701000820
:1000A0008701000887010008870100088701000810
:1000B0008701000887010008870100088701000800
:1000C00087010008870100088701000887010008F0
:1000D00087010008870100088701000887010008E0
:1000E00087010008870100088701000800F002F876
:1000F00000F02CF80AA090E8000C82448344AAF196
:100100000107DA4501D100F021F8AFF2090EBAE893
:100110000F0013F0010F18BFFB1A43F0010318473B
:10012000740300008403000000230024002500263F
:10013000103A28BF78C1FBD8520728BF30C148BF4A
:100140000B6070471FB51FBD10B510BD00F058F80B
:100150001146FFF7F7FF00F031F900F076F803B42D
:10016000FFF7F2FF03BC00F07DF80000094880476C
:1001700009480047FEE7FEE7FEE7FEE7FEE7FEE789
:10018000FEE7FEE7FEE7FEE704480549054A064BA1
:10019000704700005D030008ED00000860000020CB
:1001A0006006002060020020600200204FF0000284
:1001B00000B5134694469646203922BFA0E80C505D
:1001C000A0E80C50B1F12001BFF4F7AF090728BF38
:1001D000A0E80C5048BF0CC05DF804EB890028BFB4
:1001E00040F8042B08BF704748BF20F8022B11F0DD
:1001F000804F18BF00F8012B704770477047704759
:10020000754600F02BF8AE4605006946534620F0CF
:100210000700854618B020B5FFF7B6FFBDE82040BF
:100220004FF000064FF000074FF000084FF0000BB2
:1002300021F00701AC46ACE8C009ACE8C009ACE865
:10024000C009ACE8C0098D46704710B50446AFF34D
:1002500000802046BDE81040FFF781BF004870478E
:100260000000002001491820ABBEFEE72600020076
:10027000704710B500F002F810BD00000CB500206A
:10028000019000903348006840F4803031490860A4
:1002900000BF3048006800F4003000900198401C16
:1002A0000190009818B90198B0F5A06FF1D12948D4
:1002B000006800F4003010B10120009001E000203F
:1002C00000900098012843D12348006840F01000B6
:1002D000214908600846006820F0030008600846CD
:1002E000006840F0020008601A48406819494860F8
:1002F0000846406848600846406840F480604860AE
:100300000846406820F47C1048600846406840F485
:10031000E81048600846006840F08070086000BF40
:100320000C48006800F000700028F9D009484068C7
:1003300020F00300074948600846406840F002008A
:10034000486000BF0348406800F00C000828F9D15D
:100350000CBD0000001002400020024010B5134800
:10036000006840F0010011490860084640681049E3
:1003700008400E494860084600680E4908400B498D
:1003800008600846006820F480200860084640683D
:1003900020F4FE0048604FF41F008860FFF769FFFB
:1003A0004FF000600449086010BD000000100240DA
:1003B0000000FFF8FFFFF6FE08ED00E08AB0142110
:1003C00005A8FFF7F3FE0020049046E0002003900C
:1003D0003AE000200190029020E0BDF8100000EB10
:1003E0004000214901EB4000BDF8081030F8110031
:1003F000BDF8081001EB41011C4A02EB4101BDF8B8
:100400000C2031F81210BDF8042000FB012080B24E
:100410000190BDF80800401C80B20290BDF80800B1
:100420000328DADBBDF80400BDF8101001EB410130
:1004300005AA02EB4101BDF80C2021F81200BDF81D
:100440000C00401C80B20390BDF80C000328C0DBF8
:10045000BDF81000401C80B20490BDF810000328C5
:10046000B4DB00BFFEE7000070040008820400084F
:100470000100030005000500010003000300050062
:10048000010002000400060006000200040004004F
:1004900006000200A404000800000020600600001E
:0404A0002801000827
:040000050800016D81
:00000001FF
