:020000040800F2
:10000000600600206D0100087501000877010008F6
:10001000790100087B0100087D0100080000000054
:100020000000000000000000000000007F01000848
:10003000810100080000000083010008850100081C
:100040008701000887010008870100088701000870
:100050008701000887010008870100088701000860
:100060008701000887010008870100088701000850
:100070008701000887010008870100088701000840
:100080008701000887010008870100088701000830
:100090008701000887010008870100088701000820
:1000A0008701000887010008870100088701000810
:1000B0008701000887010008870100088701000800
:1000C00087010008870100088701000887010008F0
:1000D00087010008870100088701000887010008E0
:1000E00087010008870100088701000800F002F876
:1000F00000F02CF80AA090E8000C82448344AAF196
:100100000107DA4501D100F021F8AFF2090EBAE893
:100110000F0013F0010F18BFFB1A43F0010318473B
:10012000BC070000CC0700000023002400250026A7
:10013000103A28BF78C1FBD8520728BF30C148BF4A
:100140000B6070471FB51FBD10B510BD00F095F8CE
:100150001146FFF7F7FF00F0A7FA00F0B3F803B479
:10016000FFF7F2FF03BC00F0BBF80000094880472E
:1001700009480047FEE7FEE7FEE7FEE7FEE7FEE789
:10018000FEE7FEE7FEE7FEE704480549054A064BA1
:1001900070470000F9030008ED000008600000202F
:1001A0006006002060020020600200200FB41CB531
:1001B000074B06AA7B4469460090059800F031F889
:1001C0000020694600F040F81CBC5DF814FB0000FC
:1001D0009100000010B5431C02E010F8011B71B142
:1001E0008107FAD14FF0013202C88C1A8C4314EA0D
:1001F000C211F9D0C01A0A0603D0C01E10BDC01A21
:1002000010BD0A0401D0801E10BD0902FCD0401EA2
:1002100010BD70477047704701694A1C0261087839
:10022000704700B58FB0CDE9013100210591054936
:100230007944CDE903101146684600F00AF80FB082
:1002400000BD0000E5FFFFFF0A6802F8010B0A602D
:1002500070472DE9F04106460024D6E90170F568A3
:100260008046304603E04146B847641C3046A84704
:100270000028F8D12046BDE8F081754600F02CF842
:10028000AE4605006946534620F00700854618B083
:1002900020B5FFF779FFBDE820404FF000064FF092
:1002A00000074FF000084FF0000B21F00701AC46AB
:1002B000ACE8C009ACE8C009ACE8C009ACE8C009CA
:1002C0008D46704710B50446AFF300802046BDE868
:1002D0001040FFF744BF00000048704700000020B6
:1002E00001491820ABBEFEE726000200704700005F
:1002F00010B542F62A01491EFDD1401EF9D110BDAC
:1003000010B54FF00401491EFDD1401EF9D110BDBA
:1003100010B500F001F810BD0CB500200190009060
:100320003348006840F480303149086000BF3048ED
:10033000006800F4003000900198401C0190009883
:1003400018B90198B0F5A06FF1D12948006800F400
:10035000003010B10120009001E0002000900098D2
:10036000012843D12348006840F01000214908606B
:100370000846006820F0030008600846006840F066
:10038000020008601A4840681949486008464068F9
:1003900048600846406840F480604860084640680D
:1003A00020F47C1048600846406840F4E81048603B
:1003B0000846006840F08070086000BF0C48006884
:1003C00000F000700028F9D00948406820F00300D0
:1003D000074948600846406840F00200486000BF96
:1003E0000348406800F00C000828F9D10CBD00005B
:1003F000001002400020024010B51348006840F091
:1004000001001149086008464068104908400E493B
:100410004860084600680E4908400B4908600846D5
:10042000006820F4802008600846406820F4FE0040
:1004300048604FF41F008860FFF76AFF4FF00060CC
:100440000449086010BD0000001002400000FFF8E1
:10045000FFFFF6FE08ED00E0194A126802F4807210
:1004600022B1174A1268C2F3031200E0FF221146BC
:100470000F2921D2DFE801F008090A200E0F102011
:10048000141516201A1C1E0000BF00BF01F1310216
:10049000D0B213E000BF00BF01F13002D0B20DE0D6
:1004A00000BF00BF01F12F02D0B207E02A2005E013
:1004B000302003E0232001E0202000BF00BF704770
:1004C000080C01400A48806940F00800084988612A
:1004D0000848006820F00F00001D06490860081F4A
:1004E000006880B2044908430249091F0860704748
:1004F00000100240040C01400000444410B50446C2
:100500001148006820F47440211140EA01300E497E
:10051000086000F03BF80C48006820F4704040EAA6
:1005200004300949086000F031F804F0020004F0DA
:100530000101084318B10220FFF7DAFE02E0322081
:10054000FFF7DEFE10BD00000C0C014010B50446A4
:100550000D48006820F4704040F48060211140EAAA
:1005600001300949086000F011F80748006820F4DC
:10057000704040EA04300449086000F007F8322077
:10058000FFF7BEFE10BD00000C0C014010B508487E
:10059000006840F4006006490860C820FFF7B0FE1C
:1005A0000348006820F400600149086010BD0000A5
:1005B0000C0C014070B505460C46012D02DA04F121
:1005C000800101E004F1C001C8B2FFF797FF70BDE0
:1005D00010B52948806940F00800274988612748FC
:1005E0000068C0B226490843244908601420FFF778
:1005F0007FFE22480830006820F47C4040F44050E0
:100600001E4908310860FFF7C1FF0520FFF770FEA3
:100610001A480830006820F4704040F440501749F0
:1006200008310860FFF7B2FF6420FFF769FE134846
:100630000830006820F4704040F440500F49083101
:100640000860FFF7A3FF0D480830006820F47040F1
:1006500040F40050094908310860FFF797FF28204F
:10066000FFF74CFF0E20FFF749FF0620FFF746FF7C
:100670000120FFF743FF10BD00100240040C0140B1
:100680000033333370B50546002404E0285DFFF7DE
:100690005DFF601CC4B22846FFF79CFDA04202D952
:1006A000285D2028F2D170BD8AB08848806940F06A
:1006B00008008649886186480068854908600846C0
:1006C000006840F480600860002500BFFFF780FFED
:1006D000FFF7F8FE00BF00257EA16846FFF766FD24
:1006E00000210846FFF766FF6846FFF7CBFF0021B1
:1006F0000846FFF75FFF00BF6420FFF7F9FDE3E066
:10070000FFF7AAFE0446232C13D1042D01DA6D1C39
:1007100004E000210846FFF74DFF002500BFFFF76A
:100720009BFE0446232CFAD0E9B20020FFF742FFDB
:1007300042E02A2C13D1002D01DD6D1E04E00021C2
:100740000846FFF737FF042500BFFFF785FE044684
:100750002A2CFAD0E9B20020FFF72CFF2CE0202C45
:100760002AD0232C28D02A2C26D0022D24D00DB11B
:10077000032D08D1362C05D0372C03D0382C01D0CE
:10078000392C00D1B8E70DF8054000210846FFF7E5
:1007900011FF6846FFF776FFE9B20020FFF70AFF76
:1007A00000BFFFF759FE0446202C05D0232C03D0B0
:1007B0002A2C01D0022DF4D19DF80000302801D060
:1007C000012000E000209DF80110302901D0012116
:1007D00000E0002108439DF80210302901D00121DA
:1007E00000E0002108439DF80310302901D00121C9
:1007F00000E0002108433649091D096820EA51201C
:10080000002861D000BF9DF80000A0F1300A9DF8DB
:100810000100A0F1300B9DF80300303809909DF8DD
:10082000040030380890564645E006F13000C0B26A
:100830008DF800005F4639E007F13000C0B28DF856
:100840000100DDF824802BE008F13000C0B28DF803
:100850000300DDF820901CE04FF47A70FFF748FDAC
:1008600009F13000C0B28DF8040000210846FFF7FE
:10087000A1FE6846FFF706FF00210846FFF79AFE33
:100880001348001D006800F4007000B923E7A9F1C7
:100890000109B9F1000FDFDA09200890A8F1010879
:1008A000B8F1000FD0DA052009907F1E002FC3DABF
:1008B0004FF0090B761E002EB7DA4FF0050A002123
:1008C0000846FFF777FE00251AE7000000100240F7
:1008D000040C014030303A3030000000EC080008D1
:0C08E00000000020600600002801000855
:040000050800016D81
:00000001FF
